{
  "address": "0xbDeEAe903A0b9fBF7FdcC1488263dB79f6b1180f",
  "abi": [
    {
      "inputs": [],
      "stateMutability": "nonpayable",
      "type": "constructor"
    },
    {
      "inputs": [],
      "name": "Semaphore__CallerIsNotCoordinator",
      "type": "error"
    },
    {
      "inputs": [],
      "name": "Semaphore__GroupAlreadyExists",
      "type": "error"
    },
    {
      "inputs": [],
      "name": "Semaphore__GroupDoesNotExist",
      "type": "error"
    },
    {
      "inputs": [],
      "name": "Semaphore__MerkleTreeDepthIsNotSupported",
      "type": "error"
    },
    {
      "inputs": [],
      "name": "Semaphore__YouAreUsingTheSameNillifierTwice",
      "type": "error"
    },
    {
      "inputs": [],
      "name": "Zk3__CallerIsNotGovernance",
      "type": "error"
    },
    {
      "inputs": [],
      "name": "Zk3__CallerIsNotOwner",
      "type": "error"
    },
    {
      "anonymous": false,
      "inputs": [
        {
          "indexed": false,
          "internalType": "uint256",
          "name": "circleId",
          "type": "uint256"
        },
        {
          "indexed": true,
          "internalType": "address",
          "name": "coordinator",
          "type": "address"
        },
        {
          "indexed": false,
          "internalType": "string",
          "name": "contentURI",
          "type": "string"
        }
      ],
      "name": "CircleCreated",
      "type": "event"
    },
    {
      "anonymous": false,
      "inputs": [
        {
          "indexed": true,
          "internalType": "uint256",
          "name": "circleId",
          "type": "uint256"
        },
        {
          "indexed": false,
          "internalType": "string",
          "name": "contentURI",
          "type": "string"
        }
      ],
      "name": "CircleURIUpdated",
      "type": "event"
    },
    {
      "anonymous": false,
      "inputs": [
        {
          "indexed": false,
          "internalType": "address",
          "name": "previousGovernance",
          "type": "address"
        },
        {
          "indexed": false,
          "internalType": "address",
          "name": "newGovernance",
          "type": "address"
        }
      ],
      "name": "GovernanceUpdated",
      "type": "event"
    },
    {
      "anonymous": false,
      "inputs": [
        {
          "indexed": true,
          "internalType": "uint256",
          "name": "groupId",
          "type": "uint256"
        },
        {
          "indexed": false,
          "internalType": "uint256",
          "name": "merkleTreeDepth",
          "type": "uint256"
        },
        {
          "indexed": false,
          "internalType": "uint256",
          "name": "zeroValue",
          "type": "uint256"
        }
      ],
      "name": "GroupCreated",
      "type": "event"
    },
    {
      "anonymous": false,
      "inputs": [
        {
          "indexed": false,
          "internalType": "uint8",
          "name": "version",
          "type": "uint8"
        }
      ],
      "name": "Initialized",
      "type": "event"
    },
    {
      "anonymous": false,
      "inputs": [
        {
          "indexed": true,
          "internalType": "uint256",
          "name": "groupId",
          "type": "uint256"
        },
        {
          "indexed": false,
          "internalType": "uint256",
          "name": "index",
          "type": "uint256"
        },
        {
          "indexed": false,
          "internalType": "uint256",
          "name": "identityCommitment",
          "type": "uint256"
        },
        {
          "indexed": false,
          "internalType": "uint256",
          "name": "merkleTreeRoot",
          "type": "uint256"
        }
      ],
      "name": "MemberAdded",
      "type": "event"
    },
    {
      "anonymous": false,
      "inputs": [
        {
          "indexed": true,
          "internalType": "uint256",
          "name": "groupId",
          "type": "uint256"
        },
        {
          "indexed": false,
          "internalType": "uint256",
          "name": "index",
          "type": "uint256"
        },
        {
          "indexed": false,
          "internalType": "uint256",
          "name": "identityCommitment",
          "type": "uint256"
        },
        {
          "indexed": false,
          "internalType": "uint256",
          "name": "merkleTreeRoot",
          "type": "uint256"
        }
      ],
      "name": "MemberRemoved",
      "type": "event"
    },
    {
      "anonymous": false,
      "inputs": [
        {
          "indexed": true,
          "internalType": "uint256",
          "name": "groupId",
          "type": "uint256"
        },
        {
          "indexed": false,
          "internalType": "uint256",
          "name": "index",
          "type": "uint256"
        },
        {
          "indexed": false,
          "internalType": "uint256",
          "name": "identityCommitment",
          "type": "uint256"
        },
        {
          "indexed": false,
          "internalType": "uint256",
          "name": "newIdentityCommitment",
          "type": "uint256"
        },
        {
          "indexed": false,
          "internalType": "uint256",
          "name": "merkleTreeRoot",
          "type": "uint256"
        }
      ],
      "name": "MemberUpdated",
      "type": "event"
    },
    {
      "anonymous": false,
      "inputs": [
        {
          "indexed": true,
          "internalType": "uint256",
          "name": "circleId",
          "type": "uint256"
        },
        {
          "indexed": false,
          "internalType": "uint256",
          "name": "signal",
          "type": "uint256"
        },
        {
          "indexed": false,
          "internalType": "uint256[8]",
          "name": "proof",
          "type": "uint256[8]"
        }
      ],
      "name": "MembershipVerified",
      "type": "event"
    },
    {
      "inputs": [
        {
          "internalType": "uint256",
          "name": "circleId",
          "type": "uint256"
        },
        {
          "internalType": "uint256",
          "name": "identityCommitment",
          "type": "uint256"
        },
        {
          "internalType": "string",
          "name": "contentURI",
          "type": "string"
        }
      ],
      "name": "addIdentity",
      "outputs": [],
      "stateMutability": "nonpayable",
      "type": "function"
    },
    {
      "inputs": [
        {
          "internalType": "uint256",
          "name": "signal",
          "type": "uint256"
        },
        {
          "internalType": "uint256",
          "name": "nullifierHash",
          "type": "uint256"
        },
        {
          "internalType": "uint256",
          "name": "circleId",
          "type": "uint256"
        },
        {
          "internalType": "uint256",
          "name": "externalNullifier",
          "type": "uint256"
        },
        {
          "internalType": "uint256[8]",
          "name": "proof",
          "type": "uint256[8]"
        }
      ],
      "name": "broadcastSignal",
      "outputs": [],
      "stateMutability": "nonpayable",
      "type": "function"
    },
    {
      "inputs": [
        {
          "internalType": "uint256",
          "name": "circleId",
          "type": "uint256"
        },
        {
          "internalType": "address",
          "name": "coordinator",
          "type": "address"
        },
        {
          "internalType": "uint256",
          "name": "merkleTreeDepth",
          "type": "uint256"
        },
        {
          "internalType": "string",
          "name": "contentURI",
          "type": "string"
        }
      ],
      "name": "createCircle",
      "outputs": [],
      "stateMutability": "nonpayable",
      "type": "function"
    },
    {
      "inputs": [],
      "name": "deployer",
      "outputs": [
        {
          "internalType": "address",
          "name": "",
          "type": "address"
        }
      ],
      "stateMutability": "view",
      "type": "function"
    },
    {
      "inputs": [
        {
          "internalType": "uint256",
          "name": "circleId",
          "type": "uint256"
        }
      ],
      "name": "getContentURI",
      "outputs": [
        {
          "internalType": "string",
          "name": "",
          "type": "string"
        }
      ],
      "stateMutability": "view",
      "type": "function"
    },
    {
      "inputs": [
        {
          "internalType": "uint256",
          "name": "groupId",
          "type": "uint256"
        }
      ],
      "name": "getMerkleTreeDepth",
      "outputs": [
        {
          "internalType": "uint256",
          "name": "",
          "type": "uint256"
        }
      ],
      "stateMutability": "view",
      "type": "function"
    },
    {
      "inputs": [
        {
          "internalType": "uint256",
          "name": "groupId",
          "type": "uint256"
        }
      ],
      "name": "getMerkleTreeRoot",
      "outputs": [
        {
          "internalType": "uint256",
          "name": "",
          "type": "uint256"
        }
      ],
      "stateMutability": "view",
      "type": "function"
    },
    {
      "inputs": [
        {
          "internalType": "uint256",
          "name": "groupId",
          "type": "uint256"
        }
      ],
      "name": "getNumberOfMerkleTreeLeaves",
      "outputs": [
        {
          "internalType": "uint256",
          "name": "",
          "type": "uint256"
        }
      ],
      "stateMutability": "view",
      "type": "function"
    },
    {
      "inputs": [],
      "name": "governance",
      "outputs": [
        {
          "internalType": "address",
          "name": "",
          "type": "address"
        }
      ],
      "stateMutability": "view",
      "type": "function"
    },
    {
      "inputs": [
        {
          "internalType": "contract ISemaphoreVerifier",
          "name": "_verifier",
          "type": "address"
        }
      ],
      "name": "initialize",
      "outputs": [],
      "stateMutability": "nonpayable",
      "type": "function"
    },
    {
      "inputs": [
        {
          "internalType": "uint256",
          "name": "signal",
          "type": "uint256"
        },
        {
          "internalType": "uint256",
          "name": "nullifierHash",
          "type": "uint256"
        },
        {
          "internalType": "uint256",
          "name": "circleId",
          "type": "uint256"
        },
        {
          "internalType": "uint256",
          "name": "externalNullifier",
          "type": "uint256"
        },
        {
          "internalType": "uint256[8]",
          "name": "proof",
          "type": "uint256[8]"
        }
      ],
      "name": "isValidProof",
      "outputs": [
        {
          "internalType": "bool",
          "name": "",
          "type": "bool"
        }
      ],
      "stateMutability": "view",
      "type": "function"
    },
    {
      "inputs": [
        {
          "internalType": "uint256",
          "name": "circleId",
          "type": "uint256"
        },
        {
          "internalType": "uint256",
          "name": "identityCommitment",
          "type": "uint256"
        },
        {
          "internalType": "uint256[]",
          "name": "proofSiblings",
          "type": "uint256[]"
        },
        {
          "internalType": "uint8[]",
          "name": "proofPathIndices",
          "type": "uint8[]"
        },
        {
          "internalType": "string",
          "name": "contentURI",
          "type": "string"
        }
      ],
      "name": "revokeIdentity",
      "outputs": [],
      "stateMutability": "nonpayable",
      "type": "function"
    },
    {
      "inputs": [
        {
          "internalType": "address",
          "name": "_governance",
          "type": "address"
        }
      ],
      "name": "setGovernance",
      "outputs": [],
      "stateMutability": "nonpayable",
      "type": "function"
    },
    {
      "inputs": [
        {
          "internalType": "uint256",
          "name": "circleId",
          "type": "uint256"
        },
        {
          "internalType": "string",
          "name": "contentURI",
          "type": "string"
        }
      ],
      "name": "updateContentURI",
      "outputs": [],
      "stateMutability": "nonpayable",
      "type": "function"
    }
  ],
  "transactionHash": "0x45acadbf6f49f79f64195a3bf9ddf28498452562fe7f3e06709f9e6fda735c18",
  "args": [],
  "numDeployments": 1,
  "solcInputHash": "a40d450cdb4fd9c6aba5bd12469f61af",
  "bytecode": "0x60806040523480156200001157600080fd5b50620000226200002860201b60201c565b620001d2565b600060019054906101000a900460ff16156200007b576040517f08c379a0000000000000000000000000000000000000000000000000000000008152600401620000729062000126565b60405180910390fd5b60ff801660008054906101000a900460ff1660ff1614620000ec5760ff6000806101000a81548160ff021916908360ff1602179055507f7f26b83ff96e1f2b6a682f133852f6798a09c465da95921460cefb384740249860ff604051620000e3919062000148565b60405180910390a15b565b6000620000fd60278362000165565b91506200010a8262000183565b604082019050919050565b620001208162000176565b82525050565b600060208201905081810360008301526200014181620000ee565b9050919050565b60006020820190506200015f600083018462000115565b92915050565b600082825260208201905092915050565b600060ff82169050919050565b7f496e697469616c697a61626c653a20636f6e747261637420697320696e69746960008201527f616c697a696e6700000000000000000000000000000000000000000000000000602082015250565b61219c80620001e26000396000f3fe608060405234801561001057600080fd5b50600436106100ea5760003560e01c80637cc535701161008c578063c4d66de811610066578063c4d66de814610259578063d5f3948814610275578063dabc4d5114610293578063f8840df6146102c3576100ea565b80637cc53570146101f15780639565f3fc14610221578063ab033ea91461023d576100ea565b80635aa6e675116100c85780635aa6e67514610157578063618cde3614610175578063638480be146101915780636389e107146101c1576100ea565b8063153b9894146100ef5780632addaef01461010b5780632f7979861461013b575b600080fd5b6101096004803603810190610104919061172d565b6102df565b005b61012560048036038101906101209190611865565b6103a6565b6040516101329190611b44565b60405180910390f35b61015560048036038101906101509190611655565b610465565b005b61015f6106e2565b60405161016c9190611b00565b60405180910390f35b61018f600480360381019061018a91906117f9565b610708565b005b6101ab60048036038101906101a6919061162c565b6107c7565b6040516101b89190611c97565b60405180910390f35b6101db60048036038101906101d6919061162c565b6107e7565b6040516101e89190611c97565b60405180910390f35b61020b6004803603810190610206919061162c565b610807565b6040516102189190611b9e565b60405180910390f35b61023b60048036038101906102369190611865565b6108af565b005b610257600480360381019061025291906115da565b610a80565b005b610273600480360381019061026e9190611603565b610bb3565b005b61027d610dbb565b60405161028a9190611b00565b60405180910390f35b6102ad60048036038101906102a8919061162c565b610de1565b6040516102ba9190611c97565b60405180910390f35b6102dd60048036038101906102d891906116d5565b610e01565b005b876102e8610f0a565b73ffffffffffffffffffffffffffffffffffffffff166037600083815260200190815260200160002060000160009054906101000a900473ffffffffffffffffffffffffffffffffffffffff1673ffffffffffffffffffffffffffffffffffffffff1614610382576040517fe1932e8800000000000000000000000000000000000000000000000000000000815260040160405180910390fd5b610390898989898989610f12565b61039b898484610e01565b505050505050505050565b6000806103b2856107e7565b905060006103bf86610de1565b9050603460009054906101000a900473ffffffffffffffffffffffffffffffffffffffff1673ffffffffffffffffffffffffffffffffffffffff16639aca8f2a82898b8989886040518763ffffffff1660e01b815260040161042696959493929190611d6e565b60006040518083038186803b15801561043e57600080fd5b505afa158015610452573d6000803e3d6000fd5b5050505060019250505095945050505050565b61046d610f0a565b73ffffffffffffffffffffffffffffffffffffffff16603660009054906101000a900473ffffffffffffffffffffffffffffffffffffffff1673ffffffffffffffffffffffffffffffffffffffff16146104f3576040517f65947bb200000000000000000000000000000000000000000000000000000000815260040160405180910390fd5b60108310806105025750602083115b15610539576040517fecf64f1200000000000000000000000000000000000000000000000000000000815260040160405180910390fd5b600073ffffffffffffffffffffffffffffffffffffffff166037600087815260200190815260200160002060000160009054906101000a900473ffffffffffffffffffffffffffffffffffffffff1673ffffffffffffffffffffffffffffffffffffffff16146105d5576040517f8121725b00000000000000000000000000000000000000000000000000000000815260040160405180910390fd5b6105df858461103b565b836037600087815260200190815260200160002060000160006101000a81548173ffffffffffffffffffffffffffffffffffffffff021916908373ffffffffffffffffffffffffffffffffffffffff16021790555060016037600087815260200190815260200160002060020160006101000a81548160ff02191690831515021790555081816037600088815260200190815260200160002060010191906106889291906113e7565b508373ffffffffffffffffffffffffffffffffffffffff167f6f657d36deb3b1aa2e949c5df40eac9d79359a73c2402cefa7aee870f9ceafc08684846040516106d393929190611cdc565b60405180910390a25050505050565b603660009054906101000a900473ffffffffffffffffffffffffffffffffffffffff1681565b83610711610f0a565b73ffffffffffffffffffffffffffffffffffffffff166037600083815260200190815260200160002060000160009054906101000a900473ffffffffffffffffffffffffffffffffffffffff1673ffffffffffffffffffffffffffffffffffffffff16146107ab576040517fe1932e8800000000000000000000000000000000000000000000000000000000815260040160405180910390fd5b6107b5858561116d565b6107c0858484610e01565b5050505050565b600060336000838152602001908152602001600020600201549050919050565b600060336000838152602001908152602001600020600001549050919050565b606060376000838152602001908152602001600020600101805461082a90612010565b80601f016020809104026020016040519081016040528092919081815260200182805461085690612010565b80156108a35780601f10610878576101008083540402835291602001916108a3565b820191906000526020600020905b81548152906001019060200180831161088657829003601f168201915b50505050509050919050565b600015156037600085815260200190815260200160002060020160009054906101000a900460ff161515148015610917575060376000848152602001908152602001600020600301600085815260200190815260200160002060009054906101000a900460ff165b1561094e576040517f948d067400000000000000000000000000000000000000000000000000000000815260040160405180910390fd5b6000610959846107e7565b9050600061096685610de1565b9050603460009054906101000a900473ffffffffffffffffffffffffffffffffffffffff1673ffffffffffffffffffffffffffffffffffffffff16639aca8f2a82888a8888886040518763ffffffff1660e01b81526004016109cd96959493929190611d6e565b60006040518083038186803b1580156109e557600080fd5b505afa1580156109f9573d6000803e3d6000fd5b50505050600160376000878152602001908152602001600020600301600088815260200190815260200160002060006101000a81548160ff021916908315150217905550847f7f254fe9fbd70dab033cbf07d917849aaf303a9de06ac70d60f503a2ab4c2d378885604051610a6f929190611cb2565b60405180910390a250505050505050565b610a88610f0a565b73ffffffffffffffffffffffffffffffffffffffff16603560009054906101000a900473ffffffffffffffffffffffffffffffffffffffff1673ffffffffffffffffffffffffffffffffffffffff1614610b0e576040517f896e0b6a00000000000000000000000000000000000000000000000000000000815260040160405180910390fd5b6000603660009054906101000a900473ffffffffffffffffffffffffffffffffffffffff16905081603660006101000a81548173ffffffffffffffffffffffffffffffffffffffff021916908373ffffffffffffffffffffffffffffffffffffffff1602179055507f434a2db650703b36c824e745330d6397cdaa9ee2cc891a4938ae853e1c50b68d8183604051610ba7929190611b1b565b60405180910390a15050565b60008060019054906101000a900460ff16159050808015610be45750600160008054906101000a900460ff1660ff16105b80610c115750610bf330611295565b158015610c105750600160008054906101000a900460ff1660ff16145b5b610c50576040517f08c379a0000000000000000000000000000000000000000000000000000000008152600401610c4790611bc0565b60405180910390fd5b60016000806101000a81548160ff021916908360ff1602179055508015610c8d576001600060016101000a81548160ff0219169083151502179055505b81603460006101000a81548173ffffffffffffffffffffffffffffffffffffffff021916908373ffffffffffffffffffffffffffffffffffffffff160217905550610cd6610f0a565b603560006101000a81548173ffffffffffffffffffffffffffffffffffffffff021916908373ffffffffffffffffffffffffffffffffffffffff160217905550610d1e610f0a565b603660006101000a81548173ffffffffffffffffffffffffffffffffffffffff021916908373ffffffffffffffffffffffffffffffffffffffff1602179055508015610db75760008060016101000a81548160ff0219169083151502179055507f7f26b83ff96e1f2b6a682f133852f6798a09c465da95921460cefb38474024986001604051610dae9190611b5f565b60405180910390a15b5050565b603560009054906101000a900473ffffffffffffffffffffffffffffffffffffffff1681565b600060336000838152602001908152602001600020600101549050919050565b82610e0a610f0a565b73ffffffffffffffffffffffffffffffffffffffff166037600083815260200190815260200160002060000160009054906101000a900473ffffffffffffffffffffffffffffffffffffffff1673ffffffffffffffffffffffffffffffffffffffff1614610ea4576040517fe1932e8800000000000000000000000000000000000000000000000000000000815260040160405180910390fd5b8282603760008781526020019081526020016000206001019190610ec99291906113e7565b50837f1fc27cd7d2ef695ee8050c9f88fcaec71e630662cbe9ccf8ec34c0667c0dbb358484604051610efc929190611b7a565b60405180910390a250505050565b600033905090565b6000610f1d876107e7565b1415610f55576040517f029f057900000000000000000000000000000000000000000000000000000000815260040160405180910390fd5b6033600087815260200190815260200160002073B8A425cf1697FA711188dE0832090FBBbE07c944630629596f909187878787876040518763ffffffff1660e01b8152600401610faa96959493929190611c09565b60006040518083038186803b158015610fc257600080fd5b505af4158015610fd6573d6000803e3d6000fd5b505050506000610fe587610de1565b90506000610ff384846112b8565b9050877f3108849c053c77b8073a11256dffb5ffd5b55e93e105a355e1c9061db890d87182898560405161102993929190611d37565b60405180910390a25050505050505050565b6000611046836107e7565b1461107d576040517f8121725b00000000000000000000000000000000000000000000000000000000815260040160405180910390fd5b60006008836040516020016110929190611ae5565b6040516020818303038152906040528051906020012060001c901c90506033600084815260200190815260200160002073B8A425cf1697FA711188dE0832090FBBbE07c944631095fbb4909184846040518463ffffffff1660e01b81526004016110fe93929190611c60565b60006040518083038186803b15801561111657600080fd5b505af415801561112a573d6000803e3d6000fd5b50505050827f0d000126c26c1bbe400fd2332187f75d58b69306f9ec47b408686189d3a008338383604051611160929190611d0e565b60405180910390a2505050565b6000611178836107e7565b14156111b0576040517f029f057900000000000000000000000000000000000000000000000000000000815260040160405180910390fd5b6033600083815260200190815260200160002073B8A425cf1697FA711188dE0832090FBBbE07c94463168703fa9091836040518363ffffffff1660e01b81526004016111fd929190611be0565b60006040518083038186803b15801561121557600080fd5b505af4158015611229573d6000803e3d6000fd5b50505050600061123883610de1565b905060006001611247856107c7565b6112519190611eed565b9050837f19239b3f93cd10558aaf11423af70c77763bf54f52bcc75bfa74d4d13548cde982858560405161128793929190611d37565b60405180910390a250505050565b6000808273ffffffffffffffffffffffffffffffffffffffff163b119050919050565b6000806000905060008484905090505b60008160ff1611156113dc5760008211806113435750600085856001846112ef9190611f21565b60ff16818110611328577f4e487b7100000000000000000000000000000000000000000000000000000000600052603260045260246000fd5b905060200201602081019061133d91906118dd565b60ff1614155b156113d0576002826113559190611e93565b9150600185856001846113689190611f21565b60ff168181106113a1577f4e487b7100000000000000000000000000000000000000000000000000000000600052603260045260246000fd5b90506020020160208101906113b691906118dd565b60ff1614156113cf576001826113cc9190611e3d565b91505b5b806001900390506112c8565b508091505092915050565b8280546113f390612010565b90600052602060002090601f016020900481019282611415576000855561145c565b82601f1061142e57803560ff191683800117855561145c565b8280016001018555821561145c579182015b8281111561145b578235825591602001919060010190611440565b5b509050611469919061146d565b5090565b5b8082111561148657600081600090555060010161146e565b5090565b6000813590506114998161210a565b92915050565b6000819050826020600802820111156114b757600080fd5b92915050565b60008083601f8401126114cf57600080fd5b8235905067ffffffffffffffff8111156114e857600080fd5b60208301915083602082028301111561150057600080fd5b9250929050565b60008083601f84011261151957600080fd5b8235905067ffffffffffffffff81111561153257600080fd5b60208301915083602082028301111561154a57600080fd5b9250929050565b60008135905061156081612121565b92915050565b60008083601f84011261157857600080fd5b8235905067ffffffffffffffff81111561159157600080fd5b6020830191508360018202830111156115a957600080fd5b9250929050565b6000813590506115bf81612138565b92915050565b6000813590506115d48161214f565b92915050565b6000602082840312156115ec57600080fd5b60006115fa8482850161148a565b91505092915050565b60006020828403121561161557600080fd5b600061162384828501611551565b91505092915050565b60006020828403121561163e57600080fd5b600061164c848285016115b0565b91505092915050565b60008060008060006080868803121561166d57600080fd5b600061167b888289016115b0565b955050602061168c8882890161148a565b945050604061169d888289016115b0565b935050606086013567ffffffffffffffff8111156116ba57600080fd5b6116c688828901611566565b92509250509295509295909350565b6000806000604084860312156116ea57600080fd5b60006116f8868287016115b0565b935050602084013567ffffffffffffffff81111561171557600080fd5b61172186828701611566565b92509250509250925092565b60008060008060008060008060a0898b03121561174957600080fd5b60006117578b828c016115b0565b98505060206117688b828c016115b0565b975050604089013567ffffffffffffffff81111561178557600080fd5b6117918b828c016114bd565b9650965050606089013567ffffffffffffffff8111156117b057600080fd5b6117bc8b828c01611507565b9450945050608089013567ffffffffffffffff8111156117db57600080fd5b6117e78b828c01611566565b92509250509295985092959890939650565b6000806000806060858703121561180f57600080fd5b600061181d878288016115b0565b945050602061182e878288016115b0565b935050604085013567ffffffffffffffff81111561184b57600080fd5b61185787828801611566565b925092505092959194509250565b6000806000806000610180868803121561187e57600080fd5b600061188c888289016115b0565b955050602061189d888289016115b0565b94505060406118ae888289016115b0565b93505060606118bf888289016115b0565b92505060806118d08882890161149f565b9150509295509295909350565b6000602082840312156118ef57600080fd5b60006118fd848285016115c5565b91505092915050565b60006119128383611ad6565b60208301905092915050565b61192781611f55565b82525050565b61193a6101008383611fce565b5050565b600061194a8385611df3565b93507f07ffffffffffffffffffffffffffffffffffffffffffffffffffffffffffffff83111561197957600080fd5b60208302925061198a838584611fce565b82840190509392505050565b60006119a28385611e04565b93506119ad82611dd1565b8060005b858110156119e6576119c38284611e26565b6119cd8882611906565b97506119d883611de6565b9250506001810190506119b1565b5085925050509392505050565b6119fc81611f67565b82525050565b611a0b81611fbc565b82525050565b6000611a1d8385611e15565b9350611a2a838584611fce565b611a33836120aa565b840190509392505050565b6000611a4982611ddb565b611a538185611e15565b9350611a63818560208601611fdd565b611a6c816120aa565b840191505092915050565b6000611a84602e83611e15565b9150611a8f826120bb565b604082019050919050565b8082525050565b611aaa81611fa5565b82525050565b611ab981611fa5565b82525050565b611ad0611acb82611fa5565b612042565b82525050565b611adf81611faf565b82525050565b6000611af18284611abf565b60208201915081905092915050565b6000602082019050611b15600083018461191e565b92915050565b6000604082019050611b30600083018561191e565b611b3d602083018461191e565b9392505050565b6000602082019050611b5960008301846119f3565b92915050565b6000602082019050611b746000830184611a02565b92915050565b60006020820190508181036000830152611b95818486611a11565b90509392505050565b60006020820190508181036000830152611bb88184611a3e565b905092915050565b60006020820190508181036000830152611bd981611a77565b9050919050565b6000604082019050611bf56000830185611a9a565b611c026020830184611ab0565b9392505050565b6000608082019050611c1e6000830189611a9a565b611c2b6020830188611ab0565b8181036040830152611c3e81868861193e565b90508181036060830152611c53818486611996565b9050979650505050505050565b6000606082019050611c756000830186611a9a565b611c826020830185611ab0565b611c8f6040830184611ab0565b949350505050565b6000602082019050611cac6000830184611aa1565b92915050565b600061012082019050611cc86000830185611aa1565b611cd5602083018461192d565b9392505050565b6000604082019050611cf16000830186611aa1565b8181036020830152611d04818486611a11565b9050949350505050565b6000604082019050611d236000830185611aa1565b611d306020830184611aa1565b9392505050565b6000606082019050611d4c6000830186611aa1565b611d596020830185611aa1565b611d666040830184611aa1565b949350505050565b60006101a082019050611d846000830189611aa1565b611d916020830188611aa1565b611d9e6040830187611aa1565b611dab6060830186611aa1565b611db8608083018561192d565b611dc6610180830184611aa1565b979650505050505050565b6000819050919050565b600081519050919050565b6000602082019050919050565b600082825260208201905092915050565b600082825260208201905092915050565b600082825260208201905092915050565b6000611e3560208401846115c5565b905092915050565b6000611e4882611fa5565b9150611e5383611fa5565b9250827fffffffffffffffffffffffffffffffffffffffffffffffffffffffffffffffff03821115611e8857611e8761204c565b5b828201905092915050565b6000611e9e82611fa5565b9150611ea983611fa5565b9250817fffffffffffffffffffffffffffffffffffffffffffffffffffffffffffffffff0483118215151615611ee257611ee161204c565b5b828202905092915050565b6000611ef882611fa5565b9150611f0383611fa5565b925082821015611f1657611f1561204c565b5b828203905092915050565b6000611f2c82611faf565b9150611f3783611faf565b925082821015611f4a57611f4961204c565b5b828203905092915050565b6000611f6082611f85565b9050919050565b60008115159050919050565b6000611f7e82611f55565b9050919050565b600073ffffffffffffffffffffffffffffffffffffffff82169050919050565b6000819050919050565b600060ff82169050919050565b6000611fc782611faf565b9050919050565b82818337600083830152505050565b60005b83811015611ffb578082015181840152602081019050611fe0565b8381111561200a576000848401525b50505050565b6000600282049050600182168061202857607f821691505b6020821081141561203c5761203b61207b565b5b50919050565b6000819050919050565b7f4e487b7100000000000000000000000000000000000000000000000000000000600052601160045260246000fd5b7f4e487b7100000000000000000000000000000000000000000000000000000000600052602260045260246000fd5b6000601f19601f8301169050919050565b7f496e697469616c697a61626c653a20636f6e747261637420697320616c72656160008201527f647920696e697469616c697a6564000000000000000000000000000000000000602082015250565b61211381611f55565b811461211e57600080fd5b50565b61212a81611f73565b811461213557600080fd5b50565b61214181611fa5565b811461214c57600080fd5b50565b61215881611faf565b811461216357600080fd5b5056fea2646970667358221220df861ff626c8f7f0fbf210d633297da10db75094de949e6a881f755c6b7e6d0464736f6c63430008040033",
  "deployedBytecode": "0x608060405234801561001057600080fd5b50600436106100ea5760003560e01c80637cc535701161008c578063c4d66de811610066578063c4d66de814610259578063d5f3948814610275578063dabc4d5114610293578063f8840df6146102c3576100ea565b80637cc53570146101f15780639565f3fc14610221578063ab033ea91461023d576100ea565b80635aa6e675116100c85780635aa6e67514610157578063618cde3614610175578063638480be146101915780636389e107146101c1576100ea565b8063153b9894146100ef5780632addaef01461010b5780632f7979861461013b575b600080fd5b6101096004803603810190610104919061172d565b6102df565b005b61012560048036038101906101209190611865565b6103a6565b6040516101329190611b44565b60405180910390f35b61015560048036038101906101509190611655565b610465565b005b61015f6106e2565b60405161016c9190611b00565b60405180910390f35b61018f600480360381019061018a91906117f9565b610708565b005b6101ab60048036038101906101a6919061162c565b6107c7565b6040516101b89190611c97565b60405180910390f35b6101db60048036038101906101d6919061162c565b6107e7565b6040516101e89190611c97565b60405180910390f35b61020b6004803603810190610206919061162c565b610807565b6040516102189190611b9e565b60405180910390f35b61023b60048036038101906102369190611865565b6108af565b005b610257600480360381019061025291906115da565b610a80565b005b610273600480360381019061026e9190611603565b610bb3565b005b61027d610dbb565b60405161028a9190611b00565b60405180910390f35b6102ad60048036038101906102a8919061162c565b610de1565b6040516102ba9190611c97565b60405180910390f35b6102dd60048036038101906102d891906116d5565b610e01565b005b876102e8610f0a565b73ffffffffffffffffffffffffffffffffffffffff166037600083815260200190815260200160002060000160009054906101000a900473ffffffffffffffffffffffffffffffffffffffff1673ffffffffffffffffffffffffffffffffffffffff1614610382576040517fe1932e8800000000000000000000000000000000000000000000000000000000815260040160405180910390fd5b610390898989898989610f12565b61039b898484610e01565b505050505050505050565b6000806103b2856107e7565b905060006103bf86610de1565b9050603460009054906101000a900473ffffffffffffffffffffffffffffffffffffffff1673ffffffffffffffffffffffffffffffffffffffff16639aca8f2a82898b8989886040518763ffffffff1660e01b815260040161042696959493929190611d6e565b60006040518083038186803b15801561043e57600080fd5b505afa158015610452573d6000803e3d6000fd5b5050505060019250505095945050505050565b61046d610f0a565b73ffffffffffffffffffffffffffffffffffffffff16603660009054906101000a900473ffffffffffffffffffffffffffffffffffffffff1673ffffffffffffffffffffffffffffffffffffffff16146104f3576040517f65947bb200000000000000000000000000000000000000000000000000000000815260040160405180910390fd5b60108310806105025750602083115b15610539576040517fecf64f1200000000000000000000000000000000000000000000000000000000815260040160405180910390fd5b600073ffffffffffffffffffffffffffffffffffffffff166037600087815260200190815260200160002060000160009054906101000a900473ffffffffffffffffffffffffffffffffffffffff1673ffffffffffffffffffffffffffffffffffffffff16146105d5576040517f8121725b00000000000000000000000000000000000000000000000000000000815260040160405180910390fd5b6105df858461103b565b836037600087815260200190815260200160002060000160006101000a81548173ffffffffffffffffffffffffffffffffffffffff021916908373ffffffffffffffffffffffffffffffffffffffff16021790555060016037600087815260200190815260200160002060020160006101000a81548160ff02191690831515021790555081816037600088815260200190815260200160002060010191906106889291906113e7565b508373ffffffffffffffffffffffffffffffffffffffff167f6f657d36deb3b1aa2e949c5df40eac9d79359a73c2402cefa7aee870f9ceafc08684846040516106d393929190611cdc565b60405180910390a25050505050565b603660009054906101000a900473ffffffffffffffffffffffffffffffffffffffff1681565b83610711610f0a565b73ffffffffffffffffffffffffffffffffffffffff166037600083815260200190815260200160002060000160009054906101000a900473ffffffffffffffffffffffffffffffffffffffff1673ffffffffffffffffffffffffffffffffffffffff16146107ab576040517fe1932e8800000000000000000000000000000000000000000000000000000000815260040160405180910390fd5b6107b5858561116d565b6107c0858484610e01565b5050505050565b600060336000838152602001908152602001600020600201549050919050565b600060336000838152602001908152602001600020600001549050919050565b606060376000838152602001908152602001600020600101805461082a90612010565b80601f016020809104026020016040519081016040528092919081815260200182805461085690612010565b80156108a35780601f10610878576101008083540402835291602001916108a3565b820191906000526020600020905b81548152906001019060200180831161088657829003601f168201915b50505050509050919050565b600015156037600085815260200190815260200160002060020160009054906101000a900460ff161515148015610917575060376000848152602001908152602001600020600301600085815260200190815260200160002060009054906101000a900460ff165b1561094e576040517f948d067400000000000000000000000000000000000000000000000000000000815260040160405180910390fd5b6000610959846107e7565b9050600061096685610de1565b9050603460009054906101000a900473ffffffffffffffffffffffffffffffffffffffff1673ffffffffffffffffffffffffffffffffffffffff16639aca8f2a82888a8888886040518763ffffffff1660e01b81526004016109cd96959493929190611d6e565b60006040518083038186803b1580156109e557600080fd5b505afa1580156109f9573d6000803e3d6000fd5b50505050600160376000878152602001908152602001600020600301600088815260200190815260200160002060006101000a81548160ff021916908315150217905550847f7f254fe9fbd70dab033cbf07d917849aaf303a9de06ac70d60f503a2ab4c2d378885604051610a6f929190611cb2565b60405180910390a250505050505050565b610a88610f0a565b73ffffffffffffffffffffffffffffffffffffffff16603560009054906101000a900473ffffffffffffffffffffffffffffffffffffffff1673ffffffffffffffffffffffffffffffffffffffff1614610b0e576040517f896e0b6a00000000000000000000000000000000000000000000000000000000815260040160405180910390fd5b6000603660009054906101000a900473ffffffffffffffffffffffffffffffffffffffff16905081603660006101000a81548173ffffffffffffffffffffffffffffffffffffffff021916908373ffffffffffffffffffffffffffffffffffffffff1602179055507f434a2db650703b36c824e745330d6397cdaa9ee2cc891a4938ae853e1c50b68d8183604051610ba7929190611b1b565b60405180910390a15050565b60008060019054906101000a900460ff16159050808015610be45750600160008054906101000a900460ff1660ff16105b80610c115750610bf330611295565b158015610c105750600160008054906101000a900460ff1660ff16145b5b610c50576040517f08c379a0000000000000000000000000000000000000000000000000000000008152600401610c4790611bc0565b60405180910390fd5b60016000806101000a81548160ff021916908360ff1602179055508015610c8d576001600060016101000a81548160ff0219169083151502179055505b81603460006101000a81548173ffffffffffffffffffffffffffffffffffffffff021916908373ffffffffffffffffffffffffffffffffffffffff160217905550610cd6610f0a565b603560006101000a81548173ffffffffffffffffffffffffffffffffffffffff021916908373ffffffffffffffffffffffffffffffffffffffff160217905550610d1e610f0a565b603660006101000a81548173ffffffffffffffffffffffffffffffffffffffff021916908373ffffffffffffffffffffffffffffffffffffffff1602179055508015610db75760008060016101000a81548160ff0219169083151502179055507f7f26b83ff96e1f2b6a682f133852f6798a09c465da95921460cefb38474024986001604051610dae9190611b5f565b60405180910390a15b5050565b603560009054906101000a900473ffffffffffffffffffffffffffffffffffffffff1681565b600060336000838152602001908152602001600020600101549050919050565b82610e0a610f0a565b73ffffffffffffffffffffffffffffffffffffffff166037600083815260200190815260200160002060000160009054906101000a900473ffffffffffffffffffffffffffffffffffffffff1673ffffffffffffffffffffffffffffffffffffffff1614610ea4576040517fe1932e8800000000000000000000000000000000000000000000000000000000815260040160405180910390fd5b8282603760008781526020019081526020016000206001019190610ec99291906113e7565b50837f1fc27cd7d2ef695ee8050c9f88fcaec71e630662cbe9ccf8ec34c0667c0dbb358484604051610efc929190611b7a565b60405180910390a250505050565b600033905090565b6000610f1d876107e7565b1415610f55576040517f029f057900000000000000000000000000000000000000000000000000000000815260040160405180910390fd5b6033600087815260200190815260200160002073__$0c6eb7207c37accf1552a1c47686411ac0$__630629596f909187878787876040518763ffffffff1660e01b8152600401610faa96959493929190611c09565b60006040518083038186803b158015610fc257600080fd5b505af4158015610fd6573d6000803e3d6000fd5b505050506000610fe587610de1565b90506000610ff384846112b8565b9050877f3108849c053c77b8073a11256dffb5ffd5b55e93e105a355e1c9061db890d87182898560405161102993929190611d37565b60405180910390a25050505050505050565b6000611046836107e7565b1461107d576040517f8121725b00000000000000000000000000000000000000000000000000000000815260040160405180910390fd5b60006008836040516020016110929190611ae5565b6040516020818303038152906040528051906020012060001c901c90506033600084815260200190815260200160002073__$0c6eb7207c37accf1552a1c47686411ac0$__631095fbb4909184846040518463ffffffff1660e01b81526004016110fe93929190611c60565b60006040518083038186803b15801561111657600080fd5b505af415801561112a573d6000803e3d6000fd5b50505050827f0d000126c26c1bbe400fd2332187f75d58b69306f9ec47b408686189d3a008338383604051611160929190611d0e565b60405180910390a2505050565b6000611178836107e7565b14156111b0576040517f029f057900000000000000000000000000000000000000000000000000000000815260040160405180910390fd5b6033600083815260200190815260200160002073__$0c6eb7207c37accf1552a1c47686411ac0$__63168703fa9091836040518363ffffffff1660e01b81526004016111fd929190611be0565b60006040518083038186803b15801561121557600080fd5b505af4158015611229573d6000803e3d6000fd5b50505050600061123883610de1565b905060006001611247856107c7565b6112519190611eed565b9050837f19239b3f93cd10558aaf11423af70c77763bf54f52bcc75bfa74d4d13548cde982858560405161128793929190611d37565b60405180910390a250505050565b6000808273ffffffffffffffffffffffffffffffffffffffff163b119050919050565b6000806000905060008484905090505b60008160ff1611156113dc5760008211806113435750600085856001846112ef9190611f21565b60ff16818110611328577f4e487b7100000000000000000000000000000000000000000000000000000000600052603260045260246000fd5b905060200201602081019061133d91906118dd565b60ff1614155b156113d0576002826113559190611e93565b9150600185856001846113689190611f21565b60ff168181106113a1577f4e487b7100000000000000000000000000000000000000000000000000000000600052603260045260246000fd5b90506020020160208101906113b691906118dd565b60ff1614156113cf576001826113cc9190611e3d565b91505b5b806001900390506112c8565b508091505092915050565b8280546113f390612010565b90600052602060002090601f016020900481019282611415576000855561145c565b82601f1061142e57803560ff191683800117855561145c565b8280016001018555821561145c579182015b8281111561145b578235825591602001919060010190611440565b5b509050611469919061146d565b5090565b5b8082111561148657600081600090555060010161146e565b5090565b6000813590506114998161210a565b92915050565b6000819050826020600802820111156114b757600080fd5b92915050565b60008083601f8401126114cf57600080fd5b8235905067ffffffffffffffff8111156114e857600080fd5b60208301915083602082028301111561150057600080fd5b9250929050565b60008083601f84011261151957600080fd5b8235905067ffffffffffffffff81111561153257600080fd5b60208301915083602082028301111561154a57600080fd5b9250929050565b60008135905061156081612121565b92915050565b60008083601f84011261157857600080fd5b8235905067ffffffffffffffff81111561159157600080fd5b6020830191508360018202830111156115a957600080fd5b9250929050565b6000813590506115bf81612138565b92915050565b6000813590506115d48161214f565b92915050565b6000602082840312156115ec57600080fd5b60006115fa8482850161148a565b91505092915050565b60006020828403121561161557600080fd5b600061162384828501611551565b91505092915050565b60006020828403121561163e57600080fd5b600061164c848285016115b0565b91505092915050565b60008060008060006080868803121561166d57600080fd5b600061167b888289016115b0565b955050602061168c8882890161148a565b945050604061169d888289016115b0565b935050606086013567ffffffffffffffff8111156116ba57600080fd5b6116c688828901611566565b92509250509295509295909350565b6000806000604084860312156116ea57600080fd5b60006116f8868287016115b0565b935050602084013567ffffffffffffffff81111561171557600080fd5b61172186828701611566565b92509250509250925092565b60008060008060008060008060a0898b03121561174957600080fd5b60006117578b828c016115b0565b98505060206117688b828c016115b0565b975050604089013567ffffffffffffffff81111561178557600080fd5b6117918b828c016114bd565b9650965050606089013567ffffffffffffffff8111156117b057600080fd5b6117bc8b828c01611507565b9450945050608089013567ffffffffffffffff8111156117db57600080fd5b6117e78b828c01611566565b92509250509295985092959890939650565b6000806000806060858703121561180f57600080fd5b600061181d878288016115b0565b945050602061182e878288016115b0565b935050604085013567ffffffffffffffff81111561184b57600080fd5b61185787828801611566565b925092505092959194509250565b6000806000806000610180868803121561187e57600080fd5b600061188c888289016115b0565b955050602061189d888289016115b0565b94505060406118ae888289016115b0565b93505060606118bf888289016115b0565b92505060806118d08882890161149f565b9150509295509295909350565b6000602082840312156118ef57600080fd5b60006118fd848285016115c5565b91505092915050565b60006119128383611ad6565b60208301905092915050565b61192781611f55565b82525050565b61193a6101008383611fce565b5050565b600061194a8385611df3565b93507f07ffffffffffffffffffffffffffffffffffffffffffffffffffffffffffffff83111561197957600080fd5b60208302925061198a838584611fce565b82840190509392505050565b60006119a28385611e04565b93506119ad82611dd1565b8060005b858110156119e6576119c38284611e26565b6119cd8882611906565b97506119d883611de6565b9250506001810190506119b1565b5085925050509392505050565b6119fc81611f67565b82525050565b611a0b81611fbc565b82525050565b6000611a1d8385611e15565b9350611a2a838584611fce565b611a33836120aa565b840190509392505050565b6000611a4982611ddb565b611a538185611e15565b9350611a63818560208601611fdd565b611a6c816120aa565b840191505092915050565b6000611a84602e83611e15565b9150611a8f826120bb565b604082019050919050565b8082525050565b611aaa81611fa5565b82525050565b611ab981611fa5565b82525050565b611ad0611acb82611fa5565b612042565b82525050565b611adf81611faf565b82525050565b6000611af18284611abf565b60208201915081905092915050565b6000602082019050611b15600083018461191e565b92915050565b6000604082019050611b30600083018561191e565b611b3d602083018461191e565b9392505050565b6000602082019050611b5960008301846119f3565b92915050565b6000602082019050611b746000830184611a02565b92915050565b60006020820190508181036000830152611b95818486611a11565b90509392505050565b60006020820190508181036000830152611bb88184611a3e565b905092915050565b60006020820190508181036000830152611bd981611a77565b9050919050565b6000604082019050611bf56000830185611a9a565b611c026020830184611ab0565b9392505050565b6000608082019050611c1e6000830189611a9a565b611c2b6020830188611ab0565b8181036040830152611c3e81868861193e565b90508181036060830152611c53818486611996565b9050979650505050505050565b6000606082019050611c756000830186611a9a565b611c826020830185611ab0565b611c8f6040830184611ab0565b949350505050565b6000602082019050611cac6000830184611aa1565b92915050565b600061012082019050611cc86000830185611aa1565b611cd5602083018461192d565b9392505050565b6000604082019050611cf16000830186611aa1565b8181036020830152611d04818486611a11565b9050949350505050565b6000604082019050611d236000830185611aa1565b611d306020830184611aa1565b9392505050565b6000606082019050611d4c6000830186611aa1565b611d596020830185611aa1565b611d666040830184611aa1565b949350505050565b60006101a082019050611d846000830189611aa1565b611d916020830188611aa1565b611d9e6040830187611aa1565b611dab6060830186611aa1565b611db8608083018561192d565b611dc6610180830184611aa1565b979650505050505050565b6000819050919050565b600081519050919050565b6000602082019050919050565b600082825260208201905092915050565b600082825260208201905092915050565b600082825260208201905092915050565b6000611e3560208401846115c5565b905092915050565b6000611e4882611fa5565b9150611e5383611fa5565b9250827fffffffffffffffffffffffffffffffffffffffffffffffffffffffffffffffff03821115611e8857611e8761204c565b5b828201905092915050565b6000611e9e82611fa5565b9150611ea983611fa5565b9250817fffffffffffffffffffffffffffffffffffffffffffffffffffffffffffffffff0483118215151615611ee257611ee161204c565b5b828202905092915050565b6000611ef882611fa5565b9150611f0383611fa5565b925082821015611f1657611f1561204c565b5b828203905092915050565b6000611f2c82611faf565b9150611f3783611faf565b925082821015611f4a57611f4961204c565b5b828203905092915050565b6000611f6082611f85565b9050919050565b60008115159050919050565b6000611f7e82611f55565b9050919050565b600073ffffffffffffffffffffffffffffffffffffffff82169050919050565b6000819050919050565b600060ff82169050919050565b6000611fc782611faf565b9050919050565b82818337600083830152505050565b60005b83811015611ffb578082015181840152602081019050611fe0565b8381111561200a576000848401525b50505050565b6000600282049050600182168061202857607f821691505b6020821081141561203c5761203b61207b565b5b50919050565b6000819050919050565b7f4e487b7100000000000000000000000000000000000000000000000000000000600052601160045260246000fd5b7f4e487b7100000000000000000000000000000000000000000000000000000000600052602260045260246000fd5b6000601f19601f8301169050919050565b7f496e697469616c697a61626c653a20636f6e747261637420697320616c72656160008201527f647920696e697469616c697a6564000000000000000000000000000000000000602082015250565b61211381611f55565b811461211e57600080fd5b50565b61212a81611f73565b811461213557600080fd5b50565b61214181611fa5565b811461214c57600080fd5b50565b61215881611faf565b811461216357600080fd5b5056fea2646970667358221220df861ff626c8f7f0fbf210d633297da10db75094de949e6a881f755c6b7e6d0464736f6c63430008040033",
  "libraries": {
    "IncrementalBinaryTree": "0xB8A425cf1697FA711188dE0832090FBBbE07c944"
  },
  "devdoc": {
    "details": "The following code allows you to create circles, add members and allow them to double signal.",
    "kind": "dev",
    "methods": {
      "addIdentity(uint256,uint256,string)": {
        "details": "See {ISemaphoreZk3-addVoter}."
      },
      "broadcastSignal(uint256,uint256,uint256,uint256,uint256[8])": {
        "details": "See {ISemaphoreZk3-broadcastSignal}."
      },
      "createCircle(uint256,address,uint256,string)": {
        "details": "See {ISemaphoreZk3-createcircle}."
      },
      "getMerkleTreeDepth(uint256)": {
        "details": "See {ISemaphoreGroups-getMerkleTreeDepth}."
      },
      "getMerkleTreeRoot(uint256)": {
        "details": "See {ISemaphoreGroups-getMerkleTreeRoot}."
      },
      "getNumberOfMerkleTreeLeaves(uint256)": {
        "details": "See {ISemaphoreGroups-getNumberOfMerkleTreeLeaves}."
      },
      "isValidProof(uint256,uint256,uint256,uint256,uint256[8])": {
        "details": "See {ISemaphoreZk3-isValidProof}."
      },
      "revokeIdentity(uint256,uint256,uint256[],uint8[],string)": {
        "details": "removes a user from a gorup.",
        "params": {
          "circleId": ": Id of the group.",
          "identityCommitment": ": Identity commitment of the group member."
        }
      }
    },
    "stateVariables": {
      "circles": {
        "details": "Gets a circle id and returns the circle data."
      },
      "verifier": {
        "details": "Gets a tree depth and returns its verifier address."
      }
    },
    "title": "SemaphoreZK3 circles contract.",
    "version": 1
  },
  "userdoc": {
    "kind": "user",
    "methods": {},
    "version": 1
  },
  "storageLayout": {
    "storage": [
      {
        "astId": 6,
        "contract": "contracts/extensions/SemaphoreZk3.sol:SemaphoreZk3",
        "label": "_initialized",
        "offset": 0,
        "slot": "0",
        "type": "t_uint8"
      },
      {
        "astId": 9,
        "contract": "contracts/extensions/SemaphoreZk3.sol:SemaphoreZk3",
        "label": "_initializing",
        "offset": 1,
        "slot": "0",
        "type": "t_bool"
      },
      {
        "astId": 539,
        "contract": "contracts/extensions/SemaphoreZk3.sol:SemaphoreZk3",
        "label": "__gap",
        "offset": 0,
        "slot": "1",
        "type": "t_array(t_uint256)50_storage"
      },
      {
        "astId": 1502,
        "contract": "contracts/extensions/SemaphoreZk3.sol:SemaphoreZk3",
        "label": "merkleTrees",
        "offset": 0,
        "slot": "51",
        "type": "t_mapping(t_uint256,t_struct(IncrementalTreeData)585_storage)"
      },
      {
        "astId": 1831,
        "contract": "contracts/extensions/SemaphoreZk3.sol:SemaphoreZk3",
        "label": "verifier",
        "offset": 0,
        "slot": "52",
        "type": "t_contract(ISemaphoreVerifier)2352"
      },
      {
        "astId": 1833,
        "contract": "contracts/extensions/SemaphoreZk3.sol:SemaphoreZk3",
        "label": "deployer",
        "offset": 0,
        "slot": "53",
        "type": "t_address"
      },
      {
        "astId": 1835,
        "contract": "contracts/extensions/SemaphoreZk3.sol:SemaphoreZk3",
        "label": "governance",
        "offset": 0,
        "slot": "54",
        "type": "t_address"
      },
      {
        "astId": 1841,
        "contract": "contracts/extensions/SemaphoreZk3.sol:SemaphoreZk3",
        "label": "circles",
        "offset": 0,
        "slot": "55",
        "type": "t_mapping(t_uint256,t_struct(Circle)2376_storage)"
      }
    ],
    "types": {
      "t_address": {
        "encoding": "inplace",
        "label": "address",
        "numberOfBytes": "20"
      },
      "t_array(t_uint256)2_storage": {
        "base": "t_uint256",
        "encoding": "inplace",
        "label": "uint256[2]",
        "numberOfBytes": "64"
      },
      "t_array(t_uint256)50_storage": {
        "base": "t_uint256",
        "encoding": "inplace",
        "label": "uint256[50]",
        "numberOfBytes": "1600"
      },
      "t_bool": {
        "encoding": "inplace",
        "label": "bool",
        "numberOfBytes": "1"
      },
      "t_contract(ISemaphoreVerifier)2352": {
        "encoding": "inplace",
        "label": "contract ISemaphoreVerifier",
        "numberOfBytes": "20"
      },
      "t_mapping(t_uint256,t_array(t_uint256)2_storage)": {
        "encoding": "mapping",
        "key": "t_uint256",
        "label": "mapping(uint256 => uint256[2])",
        "numberOfBytes": "32",
        "value": "t_array(t_uint256)2_storage"
      },
      "t_mapping(t_uint256,t_bool)": {
        "encoding": "mapping",
        "key": "t_uint256",
        "label": "mapping(uint256 => bool)",
        "numberOfBytes": "32",
        "value": "t_bool"
      },
      "t_mapping(t_uint256,t_struct(Circle)2376_storage)": {
        "encoding": "mapping",
        "key": "t_uint256",
        "label": "mapping(uint256 => struct ISemaphoreZk3.Circle)",
        "numberOfBytes": "32",
        "value": "t_struct(Circle)2376_storage"
      },
      "t_mapping(t_uint256,t_struct(IncrementalTreeData)585_storage)": {
        "encoding": "mapping",
        "key": "t_uint256",
        "label": "mapping(uint256 => struct IncrementalTreeData)",
        "numberOfBytes": "32",
        "value": "t_struct(IncrementalTreeData)585_storage"
      },
      "t_mapping(t_uint256,t_uint256)": {
        "encoding": "mapping",
        "key": "t_uint256",
        "label": "mapping(uint256 => uint256)",
        "numberOfBytes": "32",
        "value": "t_uint256"
      },
      "t_string_storage": {
        "encoding": "bytes",
        "label": "string",
        "numberOfBytes": "32"
      },
      "t_struct(Circle)2376_storage": {
        "encoding": "inplace",
        "label": "struct ISemaphoreZk3.Circle",
        "members": [
          {
            "astId": 2367,
            "contract": "contracts/extensions/SemaphoreZk3.sol:SemaphoreZk3",
            "label": "coordinator",
            "offset": 0,
            "slot": "0",
            "type": "t_address"
          },
          {
            "astId": 2369,
            "contract": "contracts/extensions/SemaphoreZk3.sol:SemaphoreZk3",
            "label": "contentURI",
            "offset": 0,
            "slot": "1",
            "type": "t_string_storage"
          },
          {
            "astId": 2371,
            "contract": "contracts/extensions/SemaphoreZk3.sol:SemaphoreZk3",
            "label": "doubleSpend",
            "offset": 0,
            "slot": "2",
            "type": "t_bool"
          },
          {
            "astId": 2375,
            "contract": "contracts/extensions/SemaphoreZk3.sol:SemaphoreZk3",
            "label": "nullifierHashes",
            "offset": 0,
            "slot": "3",
            "type": "t_mapping(t_uint256,t_bool)"
          }
        ],
        "numberOfBytes": "128"
      },
      "t_struct(IncrementalTreeData)585_storage": {
        "encoding": "inplace",
        "label": "struct IncrementalTreeData",
        "members": [
          {
            "astId": 570,
            "contract": "contracts/extensions/SemaphoreZk3.sol:SemaphoreZk3",
            "label": "depth",
            "offset": 0,
            "slot": "0",
            "type": "t_uint256"
          },
          {
            "astId": 572,
            "contract": "contracts/extensions/SemaphoreZk3.sol:SemaphoreZk3",
            "label": "root",
            "offset": 0,
            "slot": "1",
            "type": "t_uint256"
          },
          {
            "astId": 574,
            "contract": "contracts/extensions/SemaphoreZk3.sol:SemaphoreZk3",
            "label": "numberOfLeaves",
            "offset": 0,
            "slot": "2",
            "type": "t_uint256"
          },
          {
            "astId": 578,
            "contract": "contracts/extensions/SemaphoreZk3.sol:SemaphoreZk3",
            "label": "zeroes",
            "offset": 0,
            "slot": "3",
            "type": "t_mapping(t_uint256,t_uint256)"
          },
          {
            "astId": 584,
            "contract": "contracts/extensions/SemaphoreZk3.sol:SemaphoreZk3",
            "label": "lastSubtrees",
            "offset": 0,
            "slot": "4",
            "type": "t_mapping(t_uint256,t_array(t_uint256)2_storage)"
          }
        ],
        "numberOfBytes": "160"
      },
      "t_uint256": {
        "encoding": "inplace",
        "label": "uint256",
        "numberOfBytes": "32"
      },
      "t_uint8": {
        "encoding": "inplace",
        "label": "uint8",
        "numberOfBytes": "1"
      }
    }
  }
}